{
  "contractName": "Casino",
  "abi": [
    {
      "constant": true,
      "inputs": [],
      "name": "maxAmtOfBets",
      "outputs": [
        {
          "name": "",
          "type": "uint256"
        }
      ],
      "payable": false,
      "stateMutability": "view",
      "type": "function"
    },
    {
      "constant": true,
      "inputs": [
        {
          "name": "",
          "type": "address"
        }
      ],
      "name": "playerInfo",
      "outputs": [
        {
          "name": "amountBet",
          "type": "uint256"
        },
        {
          "name": "numberSelected",
          "type": "uint256"
        }
      ],
      "payable": false,
      "stateMutability": "view",
      "type": "function"
    },
    {
      "constant": true,
      "inputs": [],
      "name": "owner",
      "outputs": [
        {
          "name": "",
          "type": "address"
        }
      ],
      "payable": false,
      "stateMutability": "view",
      "type": "function"
    },
    {
      "constant": true,
      "inputs": [],
      "name": "minBet",
      "outputs": [
        {
          "name": "",
          "type": "uint256"
        }
      ],
      "payable": false,
      "stateMutability": "view",
      "type": "function"
    },
    {
      "constant": true,
      "inputs": [],
      "name": "numOfBets",
      "outputs": [
        {
          "name": "",
          "type": "uint256"
        }
      ],
      "payable": false,
      "stateMutability": "view",
      "type": "function"
    },
    {
      "constant": true,
      "inputs": [
        {
          "name": "",
          "type": "uint256"
        }
      ],
      "name": "players",
      "outputs": [
        {
          "name": "",
          "type": "address"
        }
      ],
      "payable": false,
      "stateMutability": "view",
      "type": "function"
    },
    {
      "constant": true,
      "inputs": [],
      "name": "totalBet",
      "outputs": [
        {
          "name": "",
          "type": "uint256"
        }
      ],
      "payable": false,
      "stateMutability": "view",
      "type": "function"
    },
    {
      "inputs": [
        {
          "name": "_minBet",
          "type": "uint256"
        }
      ],
      "payable": false,
      "stateMutability": "nonpayable",
      "type": "constructor"
    },
    {
      "payable": true,
      "stateMutability": "payable",
      "type": "fallback"
    },
    {
      "constant": false,
      "inputs": [],
      "name": "kill",
      "outputs": [],
      "payable": false,
      "stateMutability": "nonpayable",
      "type": "function"
    },
    {
      "constant": true,
      "inputs": [
        {
          "name": "_player",
          "type": "address"
        }
      ],
      "name": "IsPlayerExist",
      "outputs": [
        {
          "name": "",
          "type": "bool"
        }
      ],
      "payable": false,
      "stateMutability": "view",
      "type": "function"
    },
    {
      "constant": false,
      "inputs": [
        {
          "name": "numSelected",
          "type": "uint256"
        }
      ],
      "name": "bet",
      "outputs": [],
      "payable": true,
      "stateMutability": "payable",
      "type": "function"
    },
    {
      "constant": false,
      "inputs": [],
      "name": "generateWin",
      "outputs": [],
      "payable": false,
      "stateMutability": "nonpayable",
      "type": "function"
    },
    {
      "constant": false,
      "inputs": [
        {
          "name": "winNum",
          "type": "uint256"
        }
      ],
      "name": "distributePrizes",
      "outputs": [],
      "payable": false,
      "stateMutability": "nonpayable",
      "type": "function"
    },
    {
      "constant": false,
      "inputs": [],
      "name": "resetData",
      "outputs": [],
      "payable": false,
      "stateMutability": "nonpayable",
      "type": "function"
    }
  ],
  "bytecode": "0x60606040526064600455341561001457600080fd5b604051602080610a7c83398101604052808051906020019091905050336000806101000a81548173ffffffffffffffffffffffffffffffffffffffff021916908373ffffffffffffffffffffffffffffffffffffffff16021790555060008114151561008257806001819055505b506109ea806100926000396000f3006060604052600436106100c5576000357c0100000000000000000000000000000000000000000000000000000000900463ffffffff16806309bc65f4146100c757806336acd7dc146100f057806341c0e1b514610141578063478c4e0e146101565780634b1146911461016b5780636ca3fc3b146101bf5780637365870b146101e25780638da5cb5b146101fa5780639619367d1461024f578063c75dbf9f14610278578063ebbd3376146102a1578063f71d96cb146102b6578063fe5e185314610319575b005b34156100d257600080fd5b6100da610342565b6040518082815260200191505060405180910390f35b34156100fb57600080fd5b610127600480803573ffffffffffffffffffffffffffffffffffffffff16906020019091905050610348565b604051808215151515815260200191505060405180910390f35b341561014c57600080fd5b6101546103ec565b005b341561016157600080fd5b61016961047d565b005b341561017657600080fd5b6101a2600480803573ffffffffffffffffffffffffffffffffffffffff1690602001909190505061049f565b604051808381526020018281526020019250505060405180910390f35b34156101ca57600080fd5b6101e060048080359060200190919050506104c3565b005b6101f860048080359060200190919050506106fd565b005b341561020557600080fd5b61020d61086c565b604051808273ffffffffffffffffffffffffffffffffffffffff1673ffffffffffffffffffffffffffffffffffffffff16815260200191505060405180910390f35b341561025a57600080fd5b610262610891565b6040518082815260200191505060405180910390f35b341561028357600080fd5b61028b610897565b6040518082815260200191505060405180910390f35b34156102ac57600080fd5b6102b461089d565b005b34156102c157600080fd5b6102d760048080359060200190919050506108bd565b604051808273ffffffffffffffffffffffffffffffffffffffff1673ffffffffffffffffffffffffffffffffffffffff16815260200191505060405180910390f35b341561032457600080fd5b61032c6108fc565b6040518082815260200191505060405180910390f35b60045481565b600080600090505b6005805490508110156103e1578273ffffffffffffffffffffffffffffffffffffffff1660058281548110151561038357fe5b906000526020600020900160009054906101000a900473ffffffffffffffffffffffffffffffffffffffff1673ffffffffffffffffffffffffffffffffffffffff1614156103d457600191506103e6565b8080600101915050610350565b600091505b50919050565b6000809054906101000a900473ffffffffffffffffffffffffffffffffffffffff1673ffffffffffffffffffffffffffffffffffffffff163373ffffffffffffffffffffffffffffffffffffffff16141561047b576000809054906101000a900473ffffffffffffffffffffffffffffffffffffffff1673ffffffffffffffffffffffffffffffffffffffff16ff5b565b600060058161048c9190610902565b5060006002819055506000600381905550565b60066020528060005260406000206000915090508060000154908060010154905082565b6104cb61092e565b6000806000806000809450600093505b60058054905084101561061d576005848154811015156104f757fe5b906000526020600020900160009054906101000a900473ffffffffffffffffffffffffffffffffffffffff16925086600660008573ffffffffffffffffffffffffffffffffffffffff1673ffffffffffffffffffffffffffffffffffffffff1681526020019081526020016000206001015414156105be5782868660648110151561057e57fe5b602002019073ffffffffffffffffffffffffffffffffffffffff16908173ffffffffffffffffffffffffffffffffffffffff168152505084806001019550505b600660008473ffffffffffffffffffffffffffffffffffffffff1673ffffffffffffffffffffffffffffffffffffffff1681526020019081526020016000206000808201600090556001820160009055505083806001019450506104db565b600060058161062c9190610902565b50606460025481151561063b57fe5b049150600090505b60648110156106f457600073ffffffffffffffffffffffffffffffffffffffff16868260648110151561067257fe5b602002015173ffffffffffffffffffffffffffffffffffffffff161415156106e75785816064811015156106a257fe5b602002015173ffffffffffffffffffffffffffffffffffffffff166108fc839081150290604051600060405180830381858888f1935050505015156106e657600080fd5b5b8080600101915050610643565b50505050505050565b61070633610348565b15151561071257600080fd5b600181101580156107245750600a8111155b151561072f57600080fd5b600154341015151561074057600080fd5b34600660003373ffffffffffffffffffffffffffffffffffffffff1673ffffffffffffffffffffffffffffffffffffffff1681526020019081526020016000206000018190555080600660003373ffffffffffffffffffffffffffffffffffffffff1673ffffffffffffffffffffffffffffffffffffffff16815260200190815260200160002060010181905550600360008154809291906001019190505550600580548060010182816107f4919061096d565b9160005260206000209001600033909190916101000a81548173ffffffffffffffffffffffffffffffffffffffff021916908373ffffffffffffffffffffffffffffffffffffffff16021790555050346002600082825401925050819055506004546003541015156108695761086861089d565b5b50565b6000809054906101000a900473ffffffffffffffffffffffffffffffffffffffff1681565b60015481565b60035481565b60006001600a438115156108ad57fe5b060190506108ba816104c3565b50565b6005818154811015156108cc57fe5b90600052602060002090016000915054906101000a900473ffffffffffffffffffffffffffffffffffffffff1681565b60025481565b815481835581811511610929578183600052602060002091820191016109289190610999565b5b505050565b610c80604051908101604052806064905b600073ffffffffffffffffffffffffffffffffffffffff1681526020019060019003908161093f5790505090565b815481835581811511610994578183600052602060002091820191016109939190610999565b5b505050565b6109bb91905b808211156109b757600081600090555060010161099f565b5090565b905600a165627a7a72305820646a58a2bfb8d5e3e3c58cf857dcbac3022c25a432cfca3cebf0a648ec9d86dd0029",
  "source": "pragma solidity ^0.4.17;\r\n\r\ncontract Casino {\r\n  \r\n    address public owner;\r\n    uint256 public minBet;\r\n    uint256 public totalBet;\r\n    uint256 public numOfBets;\r\n    uint256 public maxAmtOfBets = 100;\r\n    address[] public players;\r\n\r\n    struct Player {\r\n        uint256 amountBet;\r\n        uint256 numberSelected;\r\n    }\r\n\r\n    mapping(address => Player) public playerInfo;\r\n\r\n    function() public payable {}\r\n\r\n    function Casino(uint256 _minBet) public {\r\n        owner = msg.sender;\r\n        if(_minBet != 0) minBet = _minBet;\r\n    }\r\n\r\n    function kill() public {\r\n        if(msg.sender == owner) selfdestruct(owner);\r\n    }\r\n\r\n    function IsPlayerExist(address _player) public constant returns(bool){\r\n        for(uint256 i = 0; i < players.length; i++){\r\n            if(players[i] == _player){\r\n                return true;\r\n            }\r\n        }\r\n        return false;\r\n    }\r\n\r\n    function bet(uint256 numSelected) public payable {\r\n        require(!IsPlayerExist(msg.sender));\r\n        require(numSelected >= 1 && numSelected <= 10);\r\n        require(msg.value >= minBet);\r\n\r\n        playerInfo[msg.sender].amountBet = msg.value;\r\n        playerInfo[msg.sender].numberSelected = numSelected;\r\n        numOfBets++;\r\n        players.push(msg.sender);\r\n        totalBet += msg.value;\r\n\r\n        if(numOfBets >= maxAmtOfBets){\r\n            generateWin();\r\n        }\r\n    }\r\n\r\n    function generateWin() public {\r\n        uint256 numberGenerated = block.number % 10 + 1;\r\n        //uint256 numberGenerated = uint( block.blockhash( block.number - 1 ) ) % 10 + 1;\r\n        distributePrizes(numberGenerated);\r\n    }\r\n\r\n    function distributePrizes(uint256 winNum) public {\r\n        address[100] memory winners;\r\n\r\n        uint256 count = 0;\r\n\r\n        for(uint256 i = 0; i < players.length; i++){\r\n            address playerAddress = players[i];\r\n            if(playerInfo[playerAddress].numberSelected == winNum){\r\n                winners[count] = playerAddress;\r\n                count++;\r\n            }\r\n            delete playerInfo[playerAddress];\r\n        } \r\n\r\n        players.length = 0;\r\n\r\n        uint256 winnerEtherAmount = totalBet / winners.length;\r\n\r\n        for(uint256 j = 0; j < winners.length; j++){\r\n            if(winners[j] != address(0)){\r\n                winners[j].transfer(winnerEtherAmount);\r\n            }\r\n        }\r\n    }\r\n\r\n    function resetData() public {\r\n        players.length = 0; // Delete all the players array\r\n        totalBet = 0;\r\n        numOfBets = 0;\r\n    }\r\n\r\n}",
  "sourcePath": "C:\\xampp\\htdocs\\BLOCKCHAIN\\game-best-number\\contracts\\Casino.sol",
  "compiler": {
    "name": "solc",
    "version": "0.4.21+commit.dfe3193c.Emscripten.clang"
  },
  "schemaVersion": "2.0.0",
  "updatedAt": "2018-05-02T20:30:14.796Z"
}